{"contracts/CropBatchRegistry.sol":{"CropBatch":{"abi":[{"anonymous":false,"inputs":[{"indexed":true,"internalType":"uint256","name":"batchId","type":"uint256"},{"indexed":true,"internalType":"address","name":"farmer","type":"address"},{"indexed":false,"internalType":"string","name":"cropType","type":"string"},{"indexed":false,"internalType":"string","name":"location","type":"string"},{"indexed":false,"internalType":"uint256","name":"timestamp","type":"uint256"}],"name":"BatchCreated","type":"event"},{"anonymous":false,"inputs":[{"indexed":true,"internalType":"uint256","name":"batchId","type":"uint256"},{"indexed":false,"internalType":"enum CropBatch.State","name":"newState","type":"uint8"},{"indexed":false,"internalType":"uint256","name":"timestamp","type":"uint256"}],"name":"StateUpdated","type":"event"},{"inputs":[{"internalType":"uint256","name":"","type":"uint256"}],"name":"batches","outputs":[{"internalType":"address","name":"farmer","type":"address"},{"internalType":"string","name":"cropType","type":"string"},{"internalType":"string","name":"location","type":"string"},{"internalType":"enum CropBatch.State","name":"state","type":"uint8"},{"internalType":"uint256","name":"createdAt","type":"uint256"}],"stateMutability":"view","type":"function"},{"inputs":[{"internalType":"string","name":"cropType","type":"string"},{"internalType":"string","name":"location","type":"string"}],"name":"createBatch","outputs":[{"internalType":"uint256","name":"batchId","type":"uint256"}],"stateMutability":"nonpayable","type":"function"},{"inputs":[{"internalType":"uint256","name":"batchId","type":"uint256"}],"name":"getCurrentState","outputs":[{"internalType":"enum CropBatch.State","name":"","type":"uint8"}],"stateMutability":"view","type":"function"},{"inputs":[],"name":"nextBatchId","outputs":[{"internalType":"uint256","name":"","type":"uint256"}],"stateMutability":"view","type":"function"},{"inputs":[{"internalType":"uint256","name":"batchId","type":"uint256"},{"internalType":"enum CropBatch.State","name":"newState","type":"uint8"}],"name":"updateState","outputs":[],"stateMutability":"nonpayable","type":"function"}],"evm":{"bytecode":{"linkReferences":{},"object":"608060405234801561001057600080fd5b50610e64806100206000396000f3fe608060405234801561001057600080fd5b50600436106100575760003560e01c80635748c1301461005c5780638462a7f81461008c57806392b8f021146100aa578063b32c4d8d146100da578063ffbafdfe1461010e575b600080fd5b6100766004803603810190610071919061062a565b61012a565b60405161008391906106ce565b60405180910390f35b61009461019a565b6040516100a191906106f8565b60405180910390f35b6100c460048036038101906100bf9190610778565b6101a0565b6040516100d191906106f8565b60405180910390f35b6100f460048036038101906100ef919061062a565b6103b7565b6040516101059594939291906108ca565b60405180910390f35b61012860048036038101906101239190610950565b61052a565b005b60008054821061016f576040517f08c379a0000000000000000000000000000000000000000000000000000000008152600401610166906109dc565b60405180910390fd5b6001600083815260200190815260200160002060030160009054906101000a900460ff169050919050565b60005481565b6000805490506040518060a001604052803373ffffffffffffffffffffffffffffffffffffffff16815260200186868080601f016020809104026020016040519081016040528093929190818152602001838380828437600081840152601f19601f82011690508083019250505050505050815260200184848080601f016020809104026020016040519081016040528093929190818152602001838380828437600081840152601f19601f8201169050808301925050505050505081526020016000600481111561027557610274610657565b5b8152602001428152506001600083815260200190815260200160002060008201518160000160006101000a81548173ffffffffffffffffffffffffffffffffffffffff021916908373ffffffffffffffffffffffffffffffffffffffff16021790555060208201518160010190816102ed9190610c37565b5060408201518160020190816103039190610c37565b5060608201518160030160006101000a81548160ff0219169083600481111561032f5761032e610657565b5b0217905550608082015181600401559050503373ffffffffffffffffffffffffffffffffffffffff16817f578eceb53ff01efd40d2563799c91c34da6aed5c09950e47888e4e995a2097e98787878742604051610390959493929190610d45565b60405180910390a36000808154809291906103aa90610dbd565b9190505550949350505050565b60016020528060005260406000206000915090508060000160009054906101000a900473ffffffffffffffffffffffffffffffffffffffff169080600101805461040090610a5a565b80601f016020809104026020016040519081016040528092919081815260200182805461042c90610a5a565b80156104795780601f1061044e57610100808354040283529160200191610479565b820191906000526020600020905b81548152906001019060200180831161045c57829003601f168201915b50505050509080600201805461048e90610a5a565b80601f01602080910402602001604051908101604052809291908181526020018280546104ba90610a5a565b80156105075780601f106104dc57610100808354040283529160200191610507565b820191906000526020600020905b8154815290600101906020018083116104ea57829003601f168201915b5050505050908060030160009054906101000a900460ff16908060040154905085565b600054821061056e576040517f08c379a0000000000000000000000000000000000000000000000000000000008152600401610565906109dc565b60405180910390fd5b806001600084815260200190815260200160002060030160006101000a81548160ff021916908360048111156105a7576105a6610657565b5b0217905550817f733a27993aa525acbc52d28542aaafdbfdfb5163e22aa33add35114e3bb633cf82426040516105de929190610e05565b60405180910390a25050565b600080fd5b600080fd5b6000819050919050565b610607816105f4565b811461061257600080fd5b50565b600081359050610624816105fe565b92915050565b6000602082840312156106405761063f6105ea565b5b600061064e84828501610615565b91505092915050565b7f4e487b7100000000000000000000000000000000000000000000000000000000600052602160045260246000fd5b6005811061069757610696610657565b5b50565b60008190506106a882610686565b919050565b60006106b88261069a565b9050919050565b6106c8816106ad565b82525050565b60006020820190506106e360008301846106bf565b92915050565b6106f2816105f4565b82525050565b600060208201905061070d60008301846106e9565b92915050565b600080fd5b600080fd5b600080fd5b60008083601f84011261073857610737610713565b5b8235905067ffffffffffffffff81111561075557610754610718565b5b6020830191508360018202830111156107715761077061071d565b5b9250929050565b60008060008060408587031215610792576107916105ea565b5b600085013567ffffffffffffffff8111156107b0576107af6105ef565b5b6107bc87828801610722565b9450945050602085013567ffffffffffffffff8111156107df576107de6105ef565b5b6107eb87828801610722565b925092505092959194509250565b600073ffffffffffffffffffffffffffffffffffffffff82169050919050565b6000610824826107f9565b9050919050565b61083481610819565b82525050565b600081519050919050565b600082825260208201905092915050565b60005b83811015610874578082015181840152602081019050610859565b60008484015250505050565b6000601f19601f8301169050919050565b600061089c8261083a565b6108a68185610845565b93506108b6818560208601610856565b6108bf81610880565b840191505092915050565b600060a0820190506108df600083018861082b565b81810360208301526108f18187610891565b905081810360408301526109058186610891565b905061091460608301856106bf565b61092160808301846106e9565b9695505050505050565b6005811061093857600080fd5b50565b60008135905061094a8161092b565b92915050565b60008060408385031215610967576109666105ea565b5b600061097585828601610615565b92505060206109868582860161093b565b9150509250929050565b7f496e76616c696420626174636820494400000000000000000000000000000000600082015250565b60006109c6601083610845565b91506109d182610990565b602082019050919050565b600060208201905081810360008301526109f5816109b9565b9050919050565b7f4e487b7100000000000000000000000000000000000000000000000000000000600052604160045260246000fd5b7f4e487b7100000000000000000000000000000000000000000000000000000000600052602260045260246000fd5b60006002820490506001821680610a7257607f821691505b602082108103610a8557610a84610a2b565b5b50919050565b60008190508160005260206000209050919050565b60006020601f8301049050919050565b600082821b905092915050565b600060088302610aed7fffffffffffffffffffffffffffffffffffffffffffffffffffffffffffffffff82610ab0565b610af78683610ab0565b95508019841693508086168417925050509392505050565b6000819050919050565b6000610b34610b2f610b2a846105f4565b610b0f565b6105f4565b9050919050565b6000819050919050565b610b4e83610b19565b610b62610b5a82610b3b565b848454610abd565b825550505050565b600090565b610b77610b6a565b610b82818484610b45565b505050565b5b81811015610ba657610b9b600082610b6f565b600181019050610b88565b5050565b601f821115610beb57610bbc81610a8b565b610bc584610aa0565b81016020851015610bd4578190505b610be8610be085610aa0565b830182610b87565b50505b505050565b600082821c905092915050565b6000610c0e60001984600802610bf0565b1980831691505092915050565b6000610c278383610bfd565b9150826002028217905092915050565b610c408261083a565b67ffffffffffffffff811115610c5957610c586109fc565b5b610c638254610a5a565b610c6e828285610baa565b600060209050601f831160018114610ca15760008415610c8f578287015190505b610c998582610c1b565b865550610d01565b601f198416610caf86610a8b565b60005b82811015610cd757848901518255600182019150602085019450602081019050610cb2565b86831015610cf45784890151610cf0601f891682610bfd565b8355505b6001600288020188555050505b505050505050565b82818337600083830152505050565b6000610d248385610845565b9350610d31838584610d09565b610d3a83610880565b840190509392505050565b60006060820190508181036000830152610d60818789610d18565b90508181036020830152610d75818587610d18565b9050610d8460408301846106e9565b9695505050505050565b7f4e487b7100000000000000000000000000000000000000000000000000000000600052601160045260246000fd5b6000610dc8826105f4565b91507fffffffffffffffffffffffffffffffffffffffffffffffffffffffffffffffff8203610dfa57610df9610d8e565b5b600182019050919050565b6000604082019050610e1a60008301856106bf565b610e2760208301846106e9565b939250505056fea2646970667358221220bda72b8fd8725117eef06454ece5db2a12cedf5cce34c5d10f2288e246760eff64736f6c63430008140033","opcodes":"PUSH1 0x80 PUSH1 0x40 MSTORE CALLVALUE DUP1 ISZERO PUSH2 0x10 JUMPI PUSH1 0x0 DUP1 REVERT JUMPDEST POP PUSH2 0xE64 DUP1 PUSH2 0x20 PUSH1 0x0 CODECOPY PUSH1 0x0 RETURN INVALID PUSH1 0x80 PUSH1 0x40 MSTORE CALLVALUE DUP1 ISZERO PUSH2 0x10 JUMPI PUSH1 0x0 DUP1 REVERT JUMPDEST POP PUSH1 0x4 CALLDATASIZE LT PUSH2 0x57 JUMPI PUSH1 0x0 CALLDATALOAD PUSH1 0xE0 SHR DUP1 PUSH4 0x5748C130 EQ PUSH2 0x5C JUMPI DUP1 PUSH4 0x8462A7F8 EQ PUSH2 0x8C JUMPI DUP1 PUSH4 0x92B8F021 EQ PUSH2 0xAA JUMPI DUP1 PUSH4 0xB32C4D8D EQ PUSH2 0xDA JUMPI DUP1 PUSH4 0xFFBAFDFE EQ PUSH2 0x10E JUMPI JUMPDEST PUSH1 0x0 DUP1 REVERT JUMPDEST PUSH2 0x76 PUSH1 0x4 DUP1 CALLDATASIZE SUB DUP2 ADD SWAP1 PUSH2 0x71 SWAP2 SWAP1 PUSH2 0x62A JUMP JUMPDEST PUSH2 0x12A JUMP JUMPDEST PUSH1 0x40 MLOAD PUSH2 0x83 SWAP2 SWAP1 PUSH2 0x6CE JUMP JUMPDEST PUSH1 0x40 MLOAD DUP1 SWAP2 SUB SWAP1 RETURN JUMPDEST PUSH2 0x94 PUSH2 0x19A JUMP JUMPDEST PUSH1 0x40 MLOAD PUSH2 0xA1 SWAP2 SWAP1 PUSH2 0x6F8 JUMP JUMPDEST PUSH1 0x40 MLOAD DUP1 SWAP2 SUB SWAP1 RETURN JUMPDEST PUSH2 0xC4 PUSH1 0x4 DUP1 CALLDATASIZE SUB DUP2 ADD SWAP1 PUSH2 0xBF SWAP2 SWAP1 PUSH2 0x778 JUMP JUMPDEST PUSH2 0x1A0 JUMP JUMPDEST PUSH1 0x40 MLOAD PUSH2 0xD1 SWAP2 SWAP1 PUSH2 0x6F8 JUMP JUMPDEST PUSH1 0x40 MLOAD DUP1 SWAP2 SUB SWAP1 RETURN JUMPDEST PUSH2 0xF4 PUSH1 0x4 DUP1 CALLDATASIZE SUB DUP2 ADD SWAP1 PUSH2 0xEF SWAP2 SWAP1 PUSH2 0x62A JUMP JUMPDEST PUSH2 0x3B7 JUMP JUMPDEST PUSH1 0x40 MLOAD PUSH2 0x105 SWAP6 SWAP5 SWAP4 SWAP3 SWAP2 SWAP1 PUSH2 0x8CA JUMP JUMPDEST PUSH1 0x40 MLOAD DUP1 SWAP2 SUB SWAP1 RETURN JUMPDEST PUSH2 0x128 PUSH1 0x4 DUP1 CALLDATASIZE SUB DUP2 ADD SWAP1 PUSH2 0x123 SWAP2 SWAP1 PUSH2 0x950 JUMP JUMPDEST PUSH2 0x52A JUMP JUMPDEST STOP JUMPDEST PUSH1 0x0 DUP1 SLOAD DUP3 LT PUSH2 0x16F JUMPI PUSH1 0x40 MLOAD PUSH32 0x8C379A000000000000000000000000000000000000000000000000000000000 DUP2 MSTORE PUSH1 0x4 ADD PUSH2 0x166 SWAP1 PUSH2 0x9DC JUMP JUMPDEST PUSH1 0x40 MLOAD DUP1 SWAP2 SUB SWAP1 REVERT JUMPDEST PUSH1 0x1 PUSH1 0x0 DUP4 DUP2 MSTORE PUSH1 0x20 ADD SWAP1 DUP2 MSTORE PUSH1 0x20 ADD PUSH1 0x0 KECCAK256 PUSH1 0x3 ADD PUSH1 0x0 SWAP1 SLOAD SWAP1 PUSH2 0x100 EXP SWAP1 DIV PUSH1 0xFF AND SWAP1 POP SWAP2 SWAP1 POP JUMP JUMPDEST PUSH1 0x0 SLOAD DUP2 JUMP JUMPDEST PUSH1 0x0 DUP1 SLOAD SWAP1 POP PUSH1 0x40 MLOAD DUP1 PUSH1 0xA0 ADD PUSH1 0x40 MSTORE DUP1 CALLER PUSH20 0xFFFFFFFFFFFFFFFFFFFFFFFFFFFFFFFFFFFFFFFF AND DUP2 MSTORE PUSH1 0x20 ADD DUP7 DUP7 DUP1 DUP1 PUSH1 0x1F ADD PUSH1 0x20 DUP1 SWAP2 DIV MUL PUSH1 0x20 ADD PUSH1 0x40 MLOAD SWAP1 DUP2 ADD PUSH1 0x40 MSTORE DUP1 SWAP4 SWAP3 SWAP2 SWAP1 DUP2 DUP2 MSTORE PUSH1 0x20 ADD DUP4 DUP4 DUP1 DUP3 DUP5 CALLDATACOPY PUSH1 0x0 DUP2 DUP5 ADD MSTORE PUSH1 0x1F NOT PUSH1 0x1F DUP3 ADD AND SWAP1 POP DUP1 DUP4 ADD SWAP3 POP POP POP POP POP POP POP DUP2 MSTORE PUSH1 0x20 ADD DUP5 DUP5 DUP1 DUP1 PUSH1 0x1F ADD PUSH1 0x20 DUP1 SWAP2 DIV MUL PUSH1 0x20 ADD PUSH1 0x40 MLOAD SWAP1 DUP2 ADD PUSH1 0x40 MSTORE DUP1 SWAP4 SWAP3 SWAP2 SWAP1 DUP2 DUP2 MSTORE PUSH1 0x20 ADD DUP4 DUP4 DUP1 DUP3 DUP5 CALLDATACOPY PUSH1 0x0 DUP2 DUP5 ADD MSTORE PUSH1 0x1F NOT PUSH1 0x1F DUP3 ADD AND SWAP1 POP DUP1 DUP4 ADD SWAP3 POP POP POP POP POP POP POP DUP2 MSTORE PUSH1 0x20 ADD PUSH1 0x0 PUSH1 0x4 DUP2 GT ISZERO PUSH2 0x275 JUMPI PUSH2 0x274 PUSH2 0x657 JUMP JUMPDEST JUMPDEST DUP2 MSTORE PUSH1 0x20 ADD TIMESTAMP DUP2 MSTORE POP PUSH1 0x1 PUSH1 0x0 DUP4 DUP2 MSTORE PUSH1 0x20 ADD SWAP1 DUP2 MSTORE PUSH1 0x20 ADD PUSH1 0x0 KECCAK256 PUSH1 0x0 DUP3 ADD MLOAD DUP2 PUSH1 0x0 ADD PUSH1 0x0 PUSH2 0x100 EXP DUP2 SLOAD DUP2 PUSH20 0xFFFFFFFFFFFFFFFFFFFFFFFFFFFFFFFFFFFFFFFF MUL NOT AND SWAP1 DUP4 PUSH20 0xFFFFFFFFFFFFFFFFFFFFFFFFFFFFFFFFFFFFFFFF AND MUL OR SWAP1 SSTORE POP PUSH1 0x20 DUP3 ADD MLOAD DUP2 PUSH1 0x1 ADD SWAP1 DUP2 PUSH2 0x2ED SWAP2 SWAP1 PUSH2 0xC37 JUMP JUMPDEST POP PUSH1 0x40 DUP3 ADD MLOAD DUP2 PUSH1 0x2 ADD SWAP1 DUP2 PUSH2 0x303 SWAP2 SWAP1 PUSH2 0xC37 JUMP JUMPDEST POP PUSH1 0x60 DUP3 ADD MLOAD DUP2 PUSH1 0x3 ADD PUSH1 0x0 PUSH2 0x100 EXP DUP2 SLOAD DUP2 PUSH1 0xFF MUL NOT AND SWAP1 DUP4 PUSH1 0x4 DUP2 GT ISZERO PUSH2 0x32F JUMPI PUSH2 0x32E PUSH2 0x657 JUMP JUMPDEST JUMPDEST MUL OR SWAP1 SSTORE POP PUSH1 0x80 DUP3 ADD MLOAD DUP2 PUSH1 0x4 ADD SSTORE SWAP1 POP POP CALLER PUSH20 0xFFFFFFFFFFFFFFFFFFFFFFFFFFFFFFFFFFFFFFFF AND DUP2 PUSH32 0x578ECEB53FF01EFD40D2563799C91C34DA6AED5C09950E47888E4E995A2097E9 DUP8 DUP8 DUP8 DUP8 TIMESTAMP PUSH1 0x40 MLOAD PUSH2 0x390 SWAP6 SWAP5 SWAP4 SWAP3 SWAP2 SWAP1 PUSH2 0xD45 JUMP JUMPDEST PUSH1 0x40 MLOAD DUP1 SWAP2 SUB SWAP1 LOG3 PUSH1 0x0 DUP1 DUP2 SLOAD DUP1 SWAP3 SWAP2 SWAP1 PUSH2 0x3AA SWAP1 PUSH2 0xDBD JUMP JUMPDEST SWAP2 SWAP1 POP SSTORE POP SWAP5 SWAP4 POP POP POP POP JUMP JUMPDEST PUSH1 0x1 PUSH1 0x20 MSTORE DUP1 PUSH1 0x0 MSTORE PUSH1 0x40 PUSH1 0x0 KECCAK256 PUSH1 0x0 SWAP2 POP SWAP1 POP DUP1 PUSH1 0x0 ADD PUSH1 0x0 SWAP1 SLOAD SWAP1 PUSH2 0x100 EXP SWAP1 DIV PUSH20 0xFFFFFFFFFFFFFFFFFFFFFFFFFFFFFFFFFFFFFFFF AND SWAP1 DUP1 PUSH1 0x1 ADD DUP1 SLOAD PUSH2 0x400 SWAP1 PUSH2 0xA5A JUMP JUMPDEST DUP1 PUSH1 0x1F ADD PUSH1 0x20 DUP1 SWAP2 DIV MUL PUSH1 0x20 ADD PUSH1 0x40 MLOAD SWAP1 DUP2 ADD PUSH1 0x40 MSTORE DUP1 SWAP3 SWAP2 SWAP1 DUP2 DUP2 MSTORE PUSH1 0x20 ADD DUP3 DUP1 SLOAD PUSH2 0x42C SWAP1 PUSH2 0xA5A JUMP JUMPDEST DUP1 ISZERO PUSH2 0x479 JUMPI DUP1 PUSH1 0x1F LT PUSH2 0x44E JUMPI PUSH2 0x100 DUP1 DUP4 SLOAD DIV MUL DUP4 MSTORE SWAP2 PUSH1 0x20 ADD SWAP2 PUSH2 0x479 JUMP JUMPDEST DUP3 ADD SWAP2 SWAP1 PUSH1 0x0 MSTORE PUSH1 0x20 PUSH1 0x0 KECCAK256 SWAP1 JUMPDEST DUP2 SLOAD DUP2 MSTORE SWAP1 PUSH1 0x1 ADD SWAP1 PUSH1 0x20 ADD DUP1 DUP4 GT PUSH2 0x45C JUMPI DUP3 SWAP1 SUB PUSH1 0x1F AND DUP3 ADD SWAP2 JUMPDEST POP POP POP POP POP SWAP1 DUP1 PUSH1 0x2 ADD DUP1 SLOAD PUSH2 0x48E SWAP1 PUSH2 0xA5A JUMP JUMPDEST DUP1 PUSH1 0x1F ADD PUSH1 0x20 DUP1 SWAP2 DIV MUL PUSH1 0x20 ADD PUSH1 0x40 MLOAD SWAP1 DUP2 ADD PUSH1 0x40 MSTORE DUP1 SWAP3 SWAP2 SWAP1 DUP2 DUP2 MSTORE PUSH1 0x20 ADD DUP3 DUP1 SLOAD PUSH2 0x4BA SWAP1 PUSH2 0xA5A JUMP JUMPDEST DUP1 ISZERO PUSH2 0x507 JUMPI DUP1 PUSH1 0x1F LT PUSH2 0x4DC JUMPI PUSH2 0x100 DUP1 DUP4 SLOAD DIV MUL DUP4 MSTORE SWAP2 PUSH1 0x20 ADD SWAP2 PUSH2 0x507 JUMP JUMPDEST DUP3 ADD SWAP2 SWAP1 PUSH1 0x0 MSTORE PUSH1 0x20 PUSH1 0x0 KECCAK256 SWAP1 JUMPDEST DUP2 SLOAD DUP2 MSTORE SWAP1 PUSH1 0x1 ADD SWAP1 PUSH1 0x20 ADD DUP1 DUP4 GT PUSH2 0x4EA JUMPI DUP3 SWAP1 SUB PUSH1 0x1F AND DUP3 ADD SWAP2 JUMPDEST POP POP POP POP POP SWAP1 DUP1 PUSH1 0x3 ADD PUSH1 0x0 SWAP1 SLOAD SWAP1 PUSH2 0x100 EXP SWAP1 DIV PUSH1 0xFF AND SWAP1 DUP1 PUSH1 0x4 ADD SLOAD SWAP1 POP DUP6 JUMP JUMPDEST PUSH1 0x0 SLOAD DUP3 LT PUSH2 0x56E JUMPI PUSH1 0x40 MLOAD PUSH32 0x8C379A000000000000000000000000000000000000000000000000000000000 DUP2 MSTORE PUSH1 0x4 ADD PUSH2 0x565 SWAP1 PUSH2 0x9DC JUMP JUMPDEST PUSH1 0x40 MLOAD DUP1 SWAP2 SUB SWAP1 REVERT JUMPDEST DUP1 PUSH1 0x1 PUSH1 0x0 DUP5 DUP2 MSTORE PUSH1 0x20 ADD SWAP1 DUP2 MSTORE PUSH1 0x20 ADD PUSH1 0x0 KECCAK256 PUSH1 0x3 ADD PUSH1 0x0 PUSH2 0x100 EXP DUP2 SLOAD DUP2 PUSH1 0xFF MUL NOT AND SWAP1 DUP4 PUSH1 0x4 DUP2 GT ISZERO PUSH2 0x5A7 JUMPI PUSH2 0x5A6 PUSH2 0x657 JUMP JUMPDEST JUMPDEST MUL OR SWAP1 SSTORE POP DUP2 PUSH32 0x733A27993AA525ACBC52D28542AAAFDBFDFB5163E22AA33ADD35114E3BB633CF DUP3 TIMESTAMP PUSH1 0x40 MLOAD PUSH2 0x5DE SWAP3 SWAP2 SWAP1 PUSH2 0xE05 JUMP JUMPDEST PUSH1 0x40 MLOAD DUP1 SWAP2 SUB SWAP1 LOG2 POP POP JUMP JUMPDEST PUSH1 0x0 DUP1 REVERT JUMPDEST PUSH1 0x0 DUP1 REVERT JUMPDEST PUSH1 0x0 DUP2 SWAP1 POP SWAP2 SWAP1 POP JUMP JUMPDEST PUSH2 0x607 DUP2 PUSH2 0x5F4 JUMP JUMPDEST DUP2 EQ PUSH2 0x612 JUMPI PUSH1 0x0 DUP1 REVERT JUMPDEST POP JUMP JUMPDEST PUSH1 0x0 DUP2 CALLDATALOAD SWAP1 POP PUSH2 0x624 DUP2 PUSH2 0x5FE JUMP JUMPDEST SWAP3 SWAP2 POP POP JUMP JUMPDEST PUSH1 0x0 PUSH1 0x20 DUP3 DUP5 SUB SLT ISZERO PUSH2 0x640 JUMPI PUSH2 0x63F PUSH2 0x5EA JUMP JUMPDEST JUMPDEST PUSH1 0x0 PUSH2 0x64E DUP5 DUP3 DUP6 ADD PUSH2 0x615 JUMP JUMPDEST SWAP2 POP POP SWAP3 SWAP2 POP POP JUMP JUMPDEST PUSH32 0x4E487B7100000000000000000000000000000000000000000000000000000000 PUSH1 0x0 MSTORE PUSH1 0x21 PUSH1 0x4 MSTORE PUSH1 0x24 PUSH1 0x0 REVERT JUMPDEST PUSH1 0x5 DUP2 LT PUSH2 0x697 JUMPI PUSH2 0x696 PUSH2 0x657 JUMP JUMPDEST JUMPDEST POP JUMP JUMPDEST PUSH1 0x0 DUP2 SWAP1 POP PUSH2 0x6A8 DUP3 PUSH2 0x686 JUMP JUMPDEST SWAP2 SWAP1 POP JUMP JUMPDEST PUSH1 0x0 PUSH2 0x6B8 DUP3 PUSH2 0x69A JUMP JUMPDEST SWAP1 POP SWAP2 SWAP1 POP JUMP JUMPDEST PUSH2 0x6C8 DUP2 PUSH2 0x6AD JUMP JUMPDEST DUP3 MSTORE POP POP JUMP JUMPDEST PUSH1 0x0 PUSH1 0x20 DUP3 ADD SWAP1 POP PUSH2 0x6E3 PUSH1 0x0 DUP4 ADD DUP5 PUSH2 0x6BF JUMP JUMPDEST SWAP3 SWAP2 POP POP JUMP JUMPDEST PUSH2 0x6F2 DUP2 PUSH2 0x5F4 JUMP JUMPDEST DUP3 MSTORE POP POP JUMP JUMPDEST PUSH1 0x0 PUSH1 0x20 DUP3 ADD SWAP1 POP PUSH2 0x70D PUSH1 0x0 DUP4 ADD DUP5 PUSH2 0x6E9 JUMP JUMPDEST SWAP3 SWAP2 POP POP JUMP JUMPDEST PUSH1 0x0 DUP1 REVERT JUMPDEST PUSH1 0x0 DUP1 REVERT JUMPDEST PUSH1 0x0 DUP1 REVERT JUMPDEST PUSH1 0x0 DUP1 DUP4 PUSH1 0x1F DUP5 ADD SLT PUSH2 0x738 JUMPI PUSH2 0x737 PUSH2 0x713 JUMP JUMPDEST JUMPDEST DUP3 CALLDATALOAD SWAP1 POP PUSH8 0xFFFFFFFFFFFFFFFF DUP2 GT ISZERO PUSH2 0x755 JUMPI PUSH2 0x754 PUSH2 0x718 JUMP JUMPDEST JUMPDEST PUSH1 0x20 DUP4 ADD SWAP2 POP DUP4 PUSH1 0x1 DUP3 MUL DUP4 ADD GT ISZERO PUSH2 0x771 JUMPI PUSH2 0x770 PUSH2 0x71D JUMP JUMPDEST JUMPDEST SWAP3 POP SWAP3 SWAP1 POP JUMP JUMPDEST PUSH1 0x0 DUP1 PUSH1 0x0 DUP1 PUSH1 0x40 DUP6 DUP8 SUB SLT ISZERO PUSH2 0x792 JUMPI PUSH2 0x791 PUSH2 0x5EA JUMP JUMPDEST JUMPDEST PUSH1 0x0 DUP6 ADD CALLDATALOAD PUSH8 0xFFFFFFFFFFFFFFFF DUP2 GT ISZERO PUSH2 0x7B0 JUMPI PUSH2 0x7AF PUSH2 0x5EF JUMP JUMPDEST JUMPDEST PUSH2 0x7BC DUP8 DUP3 DUP9 ADD PUSH2 0x722 JUMP JUMPDEST SWAP5 POP SWAP5 POP POP PUSH1 0x20 DUP6 ADD CALLDATALOAD PUSH8 0xFFFFFFFFFFFFFFFF DUP2 GT ISZERO PUSH2 0x7DF JUMPI PUSH2 0x7DE PUSH2 0x5EF JUMP JUMPDEST JUMPDEST PUSH2 0x7EB DUP8 DUP3 DUP9 ADD PUSH2 0x722 JUMP JUMPDEST SWAP3 POP SWAP3 POP POP SWAP3 SWAP6 SWAP2 SWAP5 POP SWAP3 POP JUMP JUMPDEST PUSH1 0x0 PUSH20 0xFFFFFFFFFFFFFFFFFFFFFFFFFFFFFFFFFFFFFFFF DUP3 AND SWAP1 POP SWAP2 SWAP1 POP JUMP JUMPDEST PUSH1 0x0 PUSH2 0x824 DUP3 PUSH2 0x7F9 JUMP JUMPDEST SWAP1 POP SWAP2 SWAP1 POP JUMP JUMPDEST PUSH2 0x834 DUP2 PUSH2 0x819 JUMP JUMPDEST DUP3 MSTORE POP POP JUMP JUMPDEST PUSH1 0x0 DUP2 MLOAD SWAP1 POP SWAP2 SWAP1 POP JUMP JUMPDEST PUSH1 0x0 DUP3 DUP3 MSTORE PUSH1 0x20 DUP3 ADD SWAP1 POP SWAP3 SWAP2 POP POP JUMP JUMPDEST PUSH1 0x0 JUMPDEST DUP4 DUP2 LT ISZERO PUSH2 0x874 JUMPI DUP1 DUP3 ADD MLOAD DUP2 DUP5 ADD MSTORE PUSH1 0x20 DUP2 ADD SWAP1 POP PUSH2 0x859 JUMP JUMPDEST PUSH1 0x0 DUP5 DUP5 ADD MSTORE POP POP POP POP JUMP JUMPDEST PUSH1 0x0 PUSH1 0x1F NOT PUSH1 0x1F DUP4 ADD AND SWAP1 POP SWAP2 SWAP1 POP JUMP JUMPDEST PUSH1 0x0 PUSH2 0x89C DUP3 PUSH2 0x83A JUMP JUMPDEST PUSH2 0x8A6 DUP2 DUP6 PUSH2 0x845 JUMP JUMPDEST SWAP4 POP PUSH2 0x8B6 DUP2 DUP6 PUSH1 0x20 DUP7 ADD PUSH2 0x856 JUMP JUMPDEST PUSH2 0x8BF DUP2 PUSH2 0x880 JUMP JUMPDEST DUP5 ADD SWAP2 POP POP SWAP3 SWAP2 POP POP JUMP JUMPDEST PUSH1 0x0 PUSH1 0xA0 DUP3 ADD SWAP1 POP PUSH2 0x8DF PUSH1 0x0 DUP4 ADD DUP9 PUSH2 0x82B JUMP JUMPDEST DUP2 DUP2 SUB PUSH1 0x20 DUP4 ADD MSTORE PUSH2 0x8F1 DUP2 DUP8 PUSH2 0x891 JUMP JUMPDEST SWAP1 POP DUP2 DUP2 SUB PUSH1 0x40 DUP4 ADD MSTORE PUSH2 0x905 DUP2 DUP7 PUSH2 0x891 JUMP JUMPDEST SWAP1 POP PUSH2 0x914 PUSH1 0x60 DUP4 ADD DUP6 PUSH2 0x6BF JUMP JUMPDEST PUSH2 0x921 PUSH1 0x80 DUP4 ADD DUP5 PUSH2 0x6E9 JUMP JUMPDEST SWAP7 SWAP6 POP POP POP POP POP POP JUMP JUMPDEST PUSH1 0x5 DUP2 LT PUSH2 0x938 JUMPI PUSH1 0x0 DUP1 REVERT JUMPDEST POP JUMP JUMPDEST PUSH1 0x0 DUP2 CALLDATALOAD SWAP1 POP PUSH2 0x94A DUP2 PUSH2 0x92B JUMP JUMPDEST SWAP3 SWAP2 POP POP JUMP JUMPDEST PUSH1 0x0 DUP1 PUSH1 0x40 DUP4 DUP6 SUB SLT ISZERO PUSH2 0x967 JUMPI PUSH2 0x966 PUSH2 0x5EA JUMP JUMPDEST JUMPDEST PUSH1 0x0 PUSH2 0x975 DUP6 DUP3 DUP7 ADD PUSH2 0x615 JUMP JUMPDEST SWAP3 POP POP PUSH1 0x20 PUSH2 0x986 DUP6 DUP3 DUP7 ADD PUSH2 0x93B JUMP JUMPDEST SWAP2 POP POP SWAP3 POP SWAP3 SWAP1 POP JUMP JUMPDEST PUSH32 0x496E76616C696420626174636820494400000000000000000000000000000000 PUSH1 0x0 DUP3 ADD MSTORE POP JUMP JUMPDEST PUSH1 0x0 PUSH2 0x9C6 PUSH1 0x10 DUP4 PUSH2 0x845 JUMP JUMPDEST SWAP2 POP PUSH2 0x9D1 DUP3 PUSH2 0x990 JUMP JUMPDEST PUSH1 0x20 DUP3 ADD SWAP1 POP SWAP2 SWAP1 POP JUMP JUMPDEST PUSH1 0x0 PUSH1 0x20 DUP3 ADD SWAP1 POP DUP2 DUP2 SUB PUSH1 0x0 DUP4 ADD MSTORE PUSH2 0x9F5 DUP2 PUSH2 0x9B9 JUMP JUMPDEST SWAP1 POP SWAP2 SWAP1 POP JUMP JUMPDEST PUSH32 0x4E487B7100000000000000000000000000000000000000000000000000000000 PUSH1 0x0 MSTORE PUSH1 0x41 PUSH1 0x4 MSTORE PUSH1 0x24 PUSH1 0x0 REVERT JUMPDEST PUSH32 0x4E487B7100000000000000000000000000000000000000000000000000000000 PUSH1 0x0 MSTORE PUSH1 0x22 PUSH1 0x4 MSTORE PUSH1 0x24 PUSH1 0x0 REVERT JUMPDEST PUSH1 0x0 PUSH1 0x2 DUP3 DIV SWAP1 POP PUSH1 0x1 DUP3 AND DUP1 PUSH2 0xA72 JUMPI PUSH1 0x7F DUP3 AND SWAP2 POP JUMPDEST PUSH1 0x20 DUP3 LT DUP2 SUB PUSH2 0xA85 JUMPI PUSH2 0xA84 PUSH2 0xA2B JUMP JUMPDEST JUMPDEST POP SWAP2 SWAP1 POP JUMP JUMPDEST PUSH1 0x0 DUP2 SWAP1 POP DUP2 PUSH1 0x0 MSTORE PUSH1 0x20 PUSH1 0x0 KECCAK256 SWAP1 POP SWAP2 SWAP1 POP JUMP JUMPDEST PUSH1 0x0 PUSH1 0x20 PUSH1 0x1F DUP4 ADD DIV SWAP1 POP SWAP2 SWAP1 POP JUMP JUMPDEST PUSH1 0x0 DUP3 DUP3 SHL SWAP1 POP SWAP3 SWAP2 POP POP JUMP JUMPDEST PUSH1 0x0 PUSH1 0x8 DUP4 MUL PUSH2 0xAED PUSH32 0xFFFFFFFFFFFFFFFFFFFFFFFFFFFFFFFFFFFFFFFFFFFFFFFFFFFFFFFFFFFFFFFF DUP3 PUSH2 0xAB0 JUMP JUMPDEST PUSH2 0xAF7 DUP7 DUP4 PUSH2 0xAB0 JUMP JUMPDEST SWAP6 POP DUP1 NOT DUP5 AND SWAP4 POP DUP1 DUP7 AND DUP5 OR SWAP3 POP POP POP SWAP4 SWAP3 POP POP POP JUMP JUMPDEST PUSH1 0x0 DUP2 SWAP1 POP SWAP2 SWAP1 POP JUMP JUMPDEST PUSH1 0x0 PUSH2 0xB34 PUSH2 0xB2F PUSH2 0xB2A DUP5 PUSH2 0x5F4 JUMP JUMPDEST PUSH2 0xB0F JUMP JUMPDEST PUSH2 0x5F4 JUMP JUMPDEST SWAP1 POP SWAP2 SWAP1 POP JUMP JUMPDEST PUSH1 0x0 DUP2 SWAP1 POP SWAP2 SWAP1 POP JUMP JUMPDEST PUSH2 0xB4E DUP4 PUSH2 0xB19 JUMP JUMPDEST PUSH2 0xB62 PUSH2 0xB5A DUP3 PUSH2 0xB3B JUMP JUMPDEST DUP5 DUP5 SLOAD PUSH2 0xABD JUMP JUMPDEST DUP3 SSTORE POP POP POP POP JUMP JUMPDEST PUSH1 0x0 SWAP1 JUMP JUMPDEST PUSH2 0xB77 PUSH2 0xB6A JUMP JUMPDEST PUSH2 0xB82 DUP2 DUP5 DUP5 PUSH2 0xB45 JUMP JUMPDEST POP POP POP JUMP JUMPDEST JUMPDEST DUP2 DUP2 LT ISZERO PUSH2 0xBA6 JUMPI PUSH2 0xB9B PUSH1 0x0 DUP3 PUSH2 0xB6F JUMP JUMPDEST PUSH1 0x1 DUP2 ADD SWAP1 POP PUSH2 0xB88 JUMP JUMPDEST POP POP JUMP JUMPDEST PUSH1 0x1F DUP3 GT ISZERO PUSH2 0xBEB JUMPI PUSH2 0xBBC DUP2 PUSH2 0xA8B JUMP JUMPDEST PUSH2 0xBC5 DUP5 PUSH2 0xAA0 JUMP JUMPDEST DUP2 ADD PUSH1 0x20 DUP6 LT ISZERO PUSH2 0xBD4 JUMPI DUP2 SWAP1 POP JUMPDEST PUSH2 0xBE8 PUSH2 0xBE0 DUP6 PUSH2 0xAA0 JUMP JUMPDEST DUP4 ADD DUP3 PUSH2 0xB87 JUMP JUMPDEST POP POP JUMPDEST POP POP POP JUMP JUMPDEST PUSH1 0x0 DUP3 DUP3 SHR SWAP1 POP SWAP3 SWAP2 POP POP JUMP JUMPDEST PUSH1 0x0 PUSH2 0xC0E PUSH1 0x0 NOT DUP5 PUSH1 0x8 MUL PUSH2 0xBF0 JUMP JUMPDEST NOT DUP1 DUP4 AND SWAP2 POP POP SWAP3 SWAP2 POP POP JUMP JUMPDEST PUSH1 0x0 PUSH2 0xC27 DUP4 DUP4 PUSH2 0xBFD JUMP JUMPDEST SWAP2 POP DUP3 PUSH1 0x2 MUL DUP3 OR SWAP1 POP SWAP3 SWAP2 POP POP JUMP JUMPDEST PUSH2 0xC40 DUP3 PUSH2 0x83A JUMP JUMPDEST PUSH8 0xFFFFFFFFFFFFFFFF DUP2 GT ISZERO PUSH2 0xC59 JUMPI PUSH2 0xC58 PUSH2 0x9FC JUMP JUMPDEST JUMPDEST PUSH2 0xC63 DUP3 SLOAD PUSH2 0xA5A JUMP JUMPDEST PUSH2 0xC6E DUP3 DUP3 DUP6 PUSH2 0xBAA JUMP JUMPDEST PUSH1 0x0 PUSH1 0x20 SWAP1 POP PUSH1 0x1F DUP4 GT PUSH1 0x1 DUP2 EQ PUSH2 0xCA1 JUMPI PUSH1 0x0 DUP5 ISZERO PUSH2 0xC8F JUMPI DUP3 DUP8 ADD MLOAD SWAP1 POP JUMPDEST PUSH2 0xC99 DUP6 DUP3 PUSH2 0xC1B JUMP JUMPDEST DUP7 SSTORE POP PUSH2 0xD01 JUMP JUMPDEST PUSH1 0x1F NOT DUP5 AND PUSH2 0xCAF DUP7 PUSH2 0xA8B JUMP JUMPDEST PUSH1 0x0 JUMPDEST DUP3 DUP2 LT ISZERO PUSH2 0xCD7 JUMPI DUP5 DUP10 ADD MLOAD DUP3 SSTORE PUSH1 0x1 DUP3 ADD SWAP2 POP PUSH1 0x20 DUP6 ADD SWAP5 POP PUSH1 0x20 DUP2 ADD SWAP1 POP PUSH2 0xCB2 JUMP JUMPDEST DUP7 DUP4 LT ISZERO PUSH2 0xCF4 JUMPI DUP5 DUP10 ADD MLOAD PUSH2 0xCF0 PUSH1 0x1F DUP10 AND DUP3 PUSH2 0xBFD JUMP JUMPDEST DUP4 SSTORE POP JUMPDEST PUSH1 0x1 PUSH1 0x2 DUP9 MUL ADD DUP9 SSTORE POP POP POP JUMPDEST POP POP POP POP POP POP JUMP JUMPDEST DUP3 DUP2 DUP4 CALLDATACOPY PUSH1 0x0 DUP4 DUP4 ADD MSTORE POP POP POP JUMP JUMPDEST PUSH1 0x0 PUSH2 0xD24 DUP4 DUP6 PUSH2 0x845 JUMP JUMPDEST SWAP4 POP PUSH2 0xD31 DUP4 DUP6 DUP5 PUSH2 0xD09 JUMP JUMPDEST PUSH2 0xD3A DUP4 PUSH2 0x880 JUMP JUMPDEST DUP5 ADD SWAP1 POP SWAP4 SWAP3 POP POP POP JUMP JUMPDEST PUSH1 0x0 PUSH1 0x60 DUP3 ADD SWAP1 POP DUP2 DUP2 SUB PUSH1 0x0 DUP4 ADD MSTORE PUSH2 0xD60 DUP2 DUP8 DUP10 PUSH2 0xD18 JUMP JUMPDEST SWAP1 POP DUP2 DUP2 SUB PUSH1 0x20 DUP4 ADD MSTORE PUSH2 0xD75 DUP2 DUP6 DUP8 PUSH2 0xD18 JUMP JUMPDEST SWAP1 POP PUSH2 0xD84 PUSH1 0x40 DUP4 ADD DUP5 PUSH2 0x6E9 JUMP JUMPDEST SWAP7 SWAP6 POP POP POP POP POP POP JUMP JUMPDEST PUSH32 0x4E487B7100000000000000000000000000000000000000000000000000000000 PUSH1 0x0 MSTORE PUSH1 0x11 PUSH1 0x4 MSTORE PUSH1 0x24 PUSH1 0x0 REVERT JUMPDEST PUSH1 0x0 PUSH2 0xDC8 DUP3 PUSH2 0x5F4 JUMP JUMPDEST SWAP2 POP PUSH32 0xFFFFFFFFFFFFFFFFFFFFFFFFFFFFFFFFFFFFFFFFFFFFFFFFFFFFFFFFFFFFFFFF DUP3 SUB PUSH2 0xDFA JUMPI PUSH2 0xDF9 PUSH2 0xD8E JUMP JUMPDEST JUMPDEST PUSH1 0x1 DUP3 ADD SWAP1 POP SWAP2 SWAP1 POP JUMP JUMPDEST PUSH1 0x0 PUSH1 0x40 DUP3 ADD SWAP1 POP PUSH2 0xE1A PUSH1 0x0 DUP4 ADD DUP6 PUSH2 0x6BF JUMP JUMPDEST PUSH2 0xE27 PUSH1 0x20 DUP4 ADD DUP5 PUSH2 0x6E9 JUMP JUMPDEST SWAP4 SWAP3 POP POP POP JUMP INVALID LOG2 PUSH5 0x6970667358 0x22 SLT KECCAK256 0xBD 0xA7 0x2B DUP16 0xD8 PUSH19 0x5117EEF06454ECE5DB2A12CEDF5CCE34C5D10F 0x22 DUP9 0xE2 CHAINID PUSH23 0xEFF64736F6C6343000814003300000000000000000000 "},"methodIdentifiers":{"batches(uint256)":"b32c4d8d","createBatch(string,string)":"92b8f021","getCurrentState(uint256)":"5748c130","nextBatchId()":"8462a7f8","updateState(uint256,uint8)":"ffbafdfe"}}}}}