{
  "_format": "hh-sol-artifact-1",
  "contractName": "CropBatch",
  "sourceName": "contracts/CropBatchRegistry.sol",
  "abi": [
    {
      "anonymous": false,
      "inputs": [
        {
          "indexed": true,
          "internalType": "uint256",
          "name": "batchId",
          "type": "uint256"
        },
        {
          "indexed": true,
          "internalType": "address",
          "name": "farmer",
          "type": "address"
        },
        {
          "indexed": false,
          "internalType": "string",
          "name": "cropType",
          "type": "string"
        },
        {
          "indexed": false,
          "internalType": "string",
          "name": "location",
          "type": "string"
        },
        {
          "indexed": false,
          "internalType": "uint256",
          "name": "timestamp",
          "type": "uint256"
        }
      ],
      "name": "BatchCreated",
      "type": "event"
    },
    {
      "anonymous": false,
      "inputs": [
        {
          "indexed": true,
          "internalType": "uint256",
          "name": "batchId",
          "type": "uint256"
        },
        {
          "indexed": false,
          "internalType": "enum CropBatch.State",
          "name": "newState",
          "type": "uint8"
        },
        {
          "indexed": false,
          "internalType": "uint256",
          "name": "timestamp",
          "type": "uint256"
        }
      ],
      "name": "StateUpdated",
      "type": "event"
    },
    {
      "inputs": [
        {
          "internalType": "uint256",
          "name": "",
          "type": "uint256"
        }
      ],
      "name": "batches",
      "outputs": [
        {
          "internalType": "address",
          "name": "farmer",
          "type": "address"
        },
        {
          "internalType": "string",
          "name": "cropType",
          "type": "string"
        },
        {
          "internalType": "string",
          "name": "location",
          "type": "string"
        },
        {
          "internalType": "enum CropBatch.State",
          "name": "state",
          "type": "uint8"
        },
        {
          "internalType": "uint256",
          "name": "createdAt",
          "type": "uint256"
        }
      ],
      "stateMutability": "view",
      "type": "function"
    },
    {
      "inputs": [
        {
          "internalType": "string",
          "name": "cropType",
          "type": "string"
        },
        {
          "internalType": "string",
          "name": "location",
          "type": "string"
        }
      ],
      "name": "createBatch",
      "outputs": [
        {
          "internalType": "uint256",
          "name": "batchId",
          "type": "uint256"
        }
      ],
      "stateMutability": "nonpayable",
      "type": "function"
    },
    {
      "inputs": [
        {
          "internalType": "uint256",
          "name": "batchId",
          "type": "uint256"
        }
      ],
      "name": "getCurrentState",
      "outputs": [
        {
          "internalType": "enum CropBatch.State",
          "name": "",
          "type": "uint8"
        }
      ],
      "stateMutability": "view",
      "type": "function"
    },
    {
      "inputs": [],
      "name": "nextBatchId",
      "outputs": [
        {
          "internalType": "uint256",
          "name": "",
          "type": "uint256"
        }
      ],
      "stateMutability": "view",
      "type": "function"
    },
    {
      "inputs": [
        {
          "internalType": "uint256",
          "name": "batchId",
          "type": "uint256"
        },
        {
          "internalType": "enum CropBatch.State",
          "name": "newState",
          "type": "uint8"
        }
      ],
      "name": "updateState",
      "outputs": [],
      "stateMutability": "nonpayable",
      "type": "function"
    }
  ],
  "bytecode": "0x608060405234801561001057600080fd5b50610e64806100206000396000f3fe608060405234801561001057600080fd5b50600436106100575760003560e01c80635748c1301461005c5780638462a7f81461008c57806392b8f021146100aa578063b32c4d8d146100da578063ffbafdfe1461010e575b600080fd5b6100766004803603810190610071919061062a565b61012a565b60405161008391906106ce565b60405180910390f35b61009461019a565b6040516100a191906106f8565b60405180910390f35b6100c460048036038101906100bf9190610778565b6101a0565b6040516100d191906106f8565b60405180910390f35b6100f460048036038101906100ef919061062a565b6103b7565b6040516101059594939291906108ca565b60405180910390f35b61012860048036038101906101239190610950565b61052a565b005b60008054821061016f576040517f08c379a0000000000000000000000000000000000000000000000000000000008152600401610166906109dc565b60405180910390fd5b6001600083815260200190815260200160002060030160009054906101000a900460ff169050919050565b60005481565b6000805490506040518060a001604052803373ffffffffffffffffffffffffffffffffffffffff16815260200186868080601f016020809104026020016040519081016040528093929190818152602001838380828437600081840152601f19601f82011690508083019250505050505050815260200184848080601f016020809104026020016040519081016040528093929190818152602001838380828437600081840152601f19601f8201169050808301925050505050505081526020016000600481111561027557610274610657565b5b8152602001428152506001600083815260200190815260200160002060008201518160000160006101000a81548173ffffffffffffffffffffffffffffffffffffffff021916908373ffffffffffffffffffffffffffffffffffffffff16021790555060208201518160010190816102ed9190610c37565b5060408201518160020190816103039190610c37565b5060608201518160030160006101000a81548160ff0219169083600481111561032f5761032e610657565b5b0217905550608082015181600401559050503373ffffffffffffffffffffffffffffffffffffffff16817f578eceb53ff01efd40d2563799c91c34da6aed5c09950e47888e4e995a2097e98787878742604051610390959493929190610d45565b60405180910390a36000808154809291906103aa90610dbd565b9190505550949350505050565b60016020528060005260406000206000915090508060000160009054906101000a900473ffffffffffffffffffffffffffffffffffffffff169080600101805461040090610a5a565b80601f016020809104026020016040519081016040528092919081815260200182805461042c90610a5a565b80156104795780601f1061044e57610100808354040283529160200191610479565b820191906000526020600020905b81548152906001019060200180831161045c57829003601f168201915b50505050509080600201805461048e90610a5a565b80601f01602080910402602001604051908101604052809291908181526020018280546104ba90610a5a565b80156105075780601f106104dc57610100808354040283529160200191610507565b820191906000526020600020905b8154815290600101906020018083116104ea57829003601f168201915b5050505050908060030160009054906101000a900460ff16908060040154905085565b600054821061056e576040517f08c379a0000000000000000000000000000000000000000000000000000000008152600401610565906109dc565b60405180910390fd5b806001600084815260200190815260200160002060030160006101000a81548160ff021916908360048111156105a7576105a6610657565b5b0217905550817f733a27993aa525acbc52d28542aaafdbfdfb5163e22aa33add35114e3bb633cf82426040516105de929190610e05565b60405180910390a25050565b600080fd5b600080fd5b6000819050919050565b610607816105f4565b811461061257600080fd5b50565b600081359050610624816105fe565b92915050565b6000602082840312156106405761063f6105ea565b5b600061064e84828501610615565b91505092915050565b7f4e487b7100000000000000000000000000000000000000000000000000000000600052602160045260246000fd5b6005811061069757610696610657565b5b50565b60008190506106a882610686565b919050565b60006106b88261069a565b9050919050565b6106c8816106ad565b82525050565b60006020820190506106e360008301846106bf565b92915050565b6106f2816105f4565b82525050565b600060208201905061070d60008301846106e9565b92915050565b600080fd5b600080fd5b600080fd5b60008083601f84011261073857610737610713565b5b8235905067ffffffffffffffff81111561075557610754610718565b5b6020830191508360018202830111156107715761077061071d565b5b9250929050565b60008060008060408587031215610792576107916105ea565b5b600085013567ffffffffffffffff8111156107b0576107af6105ef565b5b6107bc87828801610722565b9450945050602085013567ffffffffffffffff8111156107df576107de6105ef565b5b6107eb87828801610722565b925092505092959194509250565b600073ffffffffffffffffffffffffffffffffffffffff82169050919050565b6000610824826107f9565b9050919050565b61083481610819565b82525050565b600081519050919050565b600082825260208201905092915050565b60005b83811015610874578082015181840152602081019050610859565b60008484015250505050565b6000601f19601f8301169050919050565b600061089c8261083a565b6108a68185610845565b93506108b6818560208601610856565b6108bf81610880565b840191505092915050565b600060a0820190506108df600083018861082b565b81810360208301526108f18187610891565b905081810360408301526109058186610891565b905061091460608301856106bf565b61092160808301846106e9565b9695505050505050565b6005811061093857600080fd5b50565b60008135905061094a8161092b565b92915050565b60008060408385031215610967576109666105ea565b5b600061097585828601610615565b92505060206109868582860161093b565b9150509250929050565b7f496e76616c696420626174636820494400000000000000000000000000000000600082015250565b60006109c6601083610845565b91506109d182610990565b602082019050919050565b600060208201905081810360008301526109f5816109b9565b9050919050565b7f4e487b7100000000000000000000000000000000000000000000000000000000600052604160045260246000fd5b7f4e487b7100000000000000000000000000000000000000000000000000000000600052602260045260246000fd5b60006002820490506001821680610a7257607f821691505b602082108103610a8557610a84610a2b565b5b50919050565b60008190508160005260206000209050919050565b60006020601f8301049050919050565b600082821b905092915050565b600060088302610aed7fffffffffffffffffffffffffffffffffffffffffffffffffffffffffffffffff82610ab0565b610af78683610ab0565b95508019841693508086168417925050509392505050565b6000819050919050565b6000610b34610b2f610b2a846105f4565b610b0f565b6105f4565b9050919050565b6000819050919050565b610b4e83610b19565b610b62610b5a82610b3b565b848454610abd565b825550505050565b600090565b610b77610b6a565b610b82818484610b45565b505050565b5b81811015610ba657610b9b600082610b6f565b600181019050610b88565b5050565b601f821115610beb57610bbc81610a8b565b610bc584610aa0565b81016020851015610bd4578190505b610be8610be085610aa0565b830182610b87565b50505b505050565b600082821c905092915050565b6000610c0e60001984600802610bf0565b1980831691505092915050565b6000610c278383610bfd565b9150826002028217905092915050565b610c408261083a565b67ffffffffffffffff811115610c5957610c586109fc565b5b610c638254610a5a565b610c6e828285610baa565b600060209050601f831160018114610ca15760008415610c8f578287015190505b610c998582610c1b565b865550610d01565b601f198416610caf86610a8b565b60005b82811015610cd757848901518255600182019150602085019450602081019050610cb2565b86831015610cf45784890151610cf0601f891682610bfd565b8355505b6001600288020188555050505b505050505050565b82818337600083830152505050565b6000610d248385610845565b9350610d31838584610d09565b610d3a83610880565b840190509392505050565b60006060820190508181036000830152610d60818789610d18565b90508181036020830152610d75818587610d18565b9050610d8460408301846106e9565b9695505050505050565b7f4e487b7100000000000000000000000000000000000000000000000000000000600052601160045260246000fd5b6000610dc8826105f4565b91507fffffffffffffffffffffffffffffffffffffffffffffffffffffffffffffffff8203610dfa57610df9610d8e565b5b600182019050919050565b6000604082019050610e1a60008301856106bf565b610e2760208301846106e9565b939250505056fea2646970667358221220bda72b8fd8725117eef06454ece5db2a12cedf5cce34c5d10f2288e246760eff64736f6c63430008140033",
  "linkReferences": {},
  "deployedLinkReferences": {}
}